{
  "contractName": "EducationPasaport",
  "abi": [
    {
      "constant": false,
      "inputs": [
        {
          "name": "x",
          "type": "uint8"
        }
      ],
      "name": "setDocumentType",
      "outputs": [],
      "payable": false,
      "stateMutability": "nonpayable",
      "type": "function"
    },
    {
      "constant": true,
      "inputs": [],
      "name": "getDocumentType",
      "outputs": [
        {
          "name": "",
          "type": "uint8"
        }
      ],
      "payable": false,
      "stateMutability": "view",
      "type": "function"
    },
    {
      "constant": false,
      "inputs": [
        {
          "name": "x",
          "type": "uint8"
        }
      ],
      "name": "setLevelOfEducation",
      "outputs": [],
      "payable": false,
      "stateMutability": "nonpayable",
      "type": "function"
    },
    {
      "constant": true,
      "inputs": [],
      "name": "getLevelOfEducation",
      "outputs": [
        {
          "name": "",
          "type": "uint8"
        }
      ],
      "payable": false,
      "stateMutability": "view",
      "type": "function"
    },
    {
      "constant": true,
      "inputs": [],
      "name": "getName",
      "outputs": [
        {
          "name": "y",
          "type": "string"
        }
      ],
      "payable": false,
      "stateMutability": "view",
      "type": "function"
    },
    {
      "constant": false,
      "inputs": [
        {
          "name": "x",
          "type": "string"
        }
      ],
      "name": "setName",
      "outputs": [],
      "payable": false,
      "stateMutability": "nonpayable",
      "type": "function"
    },
    {
      "constant": true,
      "inputs": [],
      "name": "getSurname",
      "outputs": [
        {
          "name": "y",
          "type": "string"
        }
      ],
      "payable": false,
      "stateMutability": "view",
      "type": "function"
    },
    {
      "constant": false,
      "inputs": [
        {
          "name": "x",
          "type": "string"
        }
      ],
      "name": "setSurName",
      "outputs": [],
      "payable": false,
      "stateMutability": "nonpayable",
      "type": "function"
    },
    {
      "constant": true,
      "inputs": [],
      "name": "getEmail",
      "outputs": [
        {
          "name": "y",
          "type": "string"
        }
      ],
      "payable": false,
      "stateMutability": "view",
      "type": "function"
    },
    {
      "constant": false,
      "inputs": [
        {
          "name": "x",
          "type": "string"
        }
      ],
      "name": "setEmail",
      "outputs": [],
      "payable": false,
      "stateMutability": "nonpayable",
      "type": "function"
    },
    {
      "constant": true,
      "inputs": [],
      "name": "getStudentID",
      "outputs": [
        {
          "name": "y",
          "type": "uint32"
        }
      ],
      "payable": false,
      "stateMutability": "view",
      "type": "function"
    },
    {
      "constant": false,
      "inputs": [
        {
          "name": "x",
          "type": "uint32"
        }
      ],
      "name": "setStudentID",
      "outputs": [],
      "payable": false,
      "stateMutability": "nonpayable",
      "type": "function"
    },
    {
      "constant": false,
      "inputs": [
        {
          "name": "_name",
          "type": "string"
        },
        {
          "name": "_surname",
          "type": "string"
        },
        {
          "name": "_email",
          "type": "string"
        },
        {
          "name": "_studentID",
          "type": "uint32"
        },
        {
          "name": "dtc",
          "type": "uint8"
        },
        {
          "name": "loec",
          "type": "uint8"
        }
      ],
      "name": "uploadEP",
      "outputs": [],
      "payable": false,
      "stateMutability": "nonpayable",
      "type": "function"
    }
  ],
  "bytecode": "0x608060405234801561001057600080fd5b50610c50806100206000396000f3fe6080604052600436106100c5576000357c0100000000000000000000000000000000000000000000000000000000900463ffffffff16806313368fd9146100ca57806316b073d61461010357806317d7de7c1461014157806320b1260b146101d1578063282b065a1461020a5780633da8b0fb146102d25780637e79e8ba1461031357806386a89994146103a3578063acc823f8146105c3578063b92cc18114610653578063c47f002714610691578063eecd3df414610759578063f99181b114610790575b600080fd5b3480156100d657600080fd5b506100df610858565b604051808260038111156100ef57fe5b60ff16815260200191505060405180910390f35b34801561010f57600080fd5b5061013f6004803603602081101561012657600080fd5b81019080803560ff16906020019092919050505061086e565b005b34801561014d57600080fd5b50610156610894565b6040518080602001828103825283818151815260200191508051906020019080838360005b8381101561019657808201518184015260208101905061017b565b50505050905090810190601f1680156101c35780820380516001836020036101000a031916815260200191505b509250505060405180910390f35b3480156101dd57600080fd5b506101e6610936565b604051808260058111156101f657fe5b60ff16815260200191505060405180910390f35b34801561021657600080fd5b506102d06004803603602081101561022d57600080fd5b810190808035906020019064010000000081111561024a57600080fd5b82018360208201111561025c57600080fd5b8035906020019184600183028401116401000000008311171561027e57600080fd5b91908080601f016020809104026020016040519081016040528093929190818152602001838380828437600081840152601f19601f82011690508083019250505050505050919291929050505061094c565b005b3480156102de57600080fd5b50610311600480360360208110156102f557600080fd5b81019080803563ffffffff169060200190929190505050610966565b005b34801561031f57600080fd5b5061032861098a565b6040518080602001828103825283818151815260200191508051906020019080838360005b8381101561036857808201518184015260208101905061034d565b50505050905090810190601f1680156103955780820380516001836020036101000a031916815260200191505b509250505060405180910390f35b3480156103af57600080fd5b506105c1600480360360c08110156103c657600080fd5b81019080803590602001906401000000008111156103e357600080fd5b8201836020820111156103f557600080fd5b8035906020019184600183028401116401000000008311171561041757600080fd5b91908080601f016020809104026020016040519081016040528093929190818152602001838380828437600081840152601f19601f8201169050808301925050505050505091929192908035906020019064010000000081111561047a57600080fd5b82018360208201111561048c57600080fd5b803590602001918460018302840111640100000000831117156104ae57600080fd5b91908080601f016020809104026020016040519081016040528093929190818152602001838380828437600081840152601f19601f8201169050808301925050505050505091929192908035906020019064010000000081111561051157600080fd5b82018360208201111561052357600080fd5b8035906020019184600183028401116401000000008311171561054557600080fd5b91908080601f016020809104026020016040519081016040528093929190818152602001838380828437600081840152601f19601f820116905080830192505050505050509192919290803563ffffffff169060200190929190803560ff169060200190929190803560ff169060200190929190505050610a2c565b005b3480156105cf57600080fd5b506105d8610a6a565b6040518080602001828103825283818151815260200191508051906020019080838360005b838110156106185780820151818401526020810190506105fd565b50505050905090810190601f1680156106455780820380516001836020036101000a031916815260200191505b509250505060405180910390f35b34801561065f57600080fd5b5061068f6004803603602081101561067657600080fd5b81019080803560ff169060200190929190505050610b0c565b005b34801561069d57600080fd5b50610757600480360360208110156106b457600080fd5b81019080803590602001906401000000008111156106d157600080fd5b8201836020820111156106e357600080fd5b8035906020019184600183028401116401000000008311171561070557600080fd5b91908080601f016020809104026020016040519081016040528093929190818152602001838380828437600081840152601f19601f820116905080830192505050505050509192919290505050610b31565b005b34801561076557600080fd5b5061076e610b4b565b604051808263ffffffff1663ffffffff16815260200191505060405180910390f35b34801561079c57600080fd5b50610856600480360360208110156107b357600080fd5b81019080803590602001906401000000008111156107d057600080fd5b8201836020820111156107e257600080fd5b8035906020019184600183028401116401000000008311171561080457600080fd5b91908080601f016020809104026020016040519081016040528093929190818152602001838380828437600081840152601f19601f820116905080830192505050505050509192919290505050610b65565b005b60008060009054906101000a900460ff16905090565b80600060016101000a81548160ff0219169083600581111561088c57fe5b021790555050565b606060018054600181600116156101000203166002900480601f01602080910402602001604051908101604052809291908181526020018280546001816001161561010002031660029004801561092c5780601f106109015761010080835404028352916020019161092c565b820191906000526020600020905b81548152906001019060200180831161090f57829003601f168201915b5050505050905090565b60008060019054906101000a900460ff16905090565b8060039080519060200190610962929190610b7f565b5050565b80600460006101000a81548163ffffffff021916908363ffffffff16021790555050565b606060038054600181600116156101000203166002900480601f016020809104026020016040519081016040528092919081815260200182805460018160011615610100020316600290048015610a225780601f106109f757610100808354040283529160200191610a22565b820191906000526020600020905b815481529060010190602001808311610a0557829003601f168201915b5050505050905090565b610a3586610b31565b610a3e85610b65565b610a478461094c565b610a5083610966565b610a5982610b0c565b610a628161086e565b505050505050565b606060028054600181600116156101000203166002900480601f016020809104026020016040519081016040528092919081815260200182805460018160011615610100020316600290048015610b025780601f10610ad757610100808354040283529160200191610b02565b820191906000526020600020905b815481529060010190602001808311610ae557829003601f168201915b5050505050905090565b806000806101000a81548160ff02191690836003811115610b2957fe5b021790555050565b8060019080519060200190610b47929190610b7f565b5050565b6000600460009054906101000a900463ffffffff16905090565b8060029080519060200190610b7b929190610b7f565b5050565b828054600181600116156101000203166002900490600052602060002090601f016020900481019282601f10610bc057805160ff1916838001178555610bee565b82800160010185558215610bee579182015b82811115610bed578251825591602001919060010190610bd2565b5b509050610bfb9190610bff565b5090565b610c2191905b80821115610c1d576000816000905550600101610c05565b5090565b9056fea165627a7a72305820ee0f6172d73f6b676b906cb12df8a9fb453f19cf5af44bf97ea8f158e5b93daf0029",
  "source": "pragma solidity ^0.5.0;\n\ncontract EducationPasaport {\n    enum documentType {Diplomas,Certificates,Transcripts,ReportCards}\n    enum levelOfEducation {PhD,Master,Bachelor,HighSchool,SecondarySchool,PrimarySchool}\n\n    documentType documentTypeChoice;\n    function setDocumentType(documentType x) public { documentTypeChoice = x; }\n    function getDocumentType() public view returns(documentType) {return documentTypeChoice; }\n\n    levelOfEducation levelOfEducationChoice;\n    function setLevelOfEducation(levelOfEducation x) public { levelOfEducationChoice = x; }\n    function getLevelOfEducation() public view returns(levelOfEducation) {return levelOfEducationChoice; }\n\n    string name;\n    function getName() public view returns (string memory y) { return name; }\n    function setName(string memory x) public { name = x; }\n\n    string surname;\n    function getSurname() public view returns (string memory y) { return surname; }\n    function setSurName(string memory x) public { surname = x; }\n\n    string email;\n    function getEmail() public view returns (string memory y) { return email; }\n    function setEmail(string memory x) public { email = x; }\n\n    uint32 studentID;\n    function getStudentID() public view returns (uint32 y) { return studentID; }\n    function setStudentID(uint32 x) public { studentID = x; }\n\n    function uploadEP(string memory _name,string memory _surname,string memory _email,uint32 _studentID,documentType  dtc,levelOfEducation  loec) public {\n        setName(_name);\n        setSurName(_surname);\n        setEmail(_email);\n        setStudentID(_studentID);\n        setDocumentType(dtc);\n        setLevelOfEducation(loec);\n    }\n}\n",
  "sourcePath": "/home/moriarty/WebstormProjects/final/contracts/EducationPasaport.sol",
  "compiler": {
    "name": "solc",
    "version": "0.5.0+commit.1d4f565a.Emscripten.clang"
  },
  "schemaVersion": "3.0.0",
  "updatedAt": "2019-01-24T16:54:06.859Z",
  "devdoc": {
    "methods": {}
  },
  "userdoc": {
    "methods": {}
  }
}