{
  "contractName": "LibraryDemo",
  "abi": [
    {
      "constant": true,
      "inputs": [
        {
          "name": "x",
          "type": "uint256"
        },
        {
          "name": "y",
          "type": "uint256"
        }
      ],
      "name": "addTwoValues",
      "outputs": [
        {
          "name": "z",
          "type": "uint256"
        }
      ],
      "payable": false,
      "stateMutability": "pure",
      "type": "function"
    }
  ],
  "bytecode": "0x608060405234801561001057600080fd5b50610188806100206000396000f3fe608060405260043610610041576000357c0100000000000000000000000000000000000000000000000000000000900463ffffffff16806364ade9cb14610046575b600080fd5b34801561005257600080fd5b506100896004803603604081101561006957600080fd5b81019080803590602001909291908035906020019092919050505061009f565b6040518082815260200191505060405180910390f35b60008273__DemoLibrary___________________________63771602f79091846040518363ffffffff167c0100000000000000000000000000000000000000000000000000000000028152600401808381526020018281526020019250505060206040518083038186803b15801561011657600080fd5b505af415801561012a573d6000803e3d6000fd5b505050506040513d602081101561014057600080fd5b810190808051906020019092919050505090508090509291505056fea165627a7a723058204cf2b8bc61c23ef961efa116fdb5ce2786311fea19c6b936e65d1d0e800400900029",
  "source": "pragma solidity ^0.5.0;\n\ncontract LibraryDemo {\n    /*\n    Combines DemoLibrary functionality with uint256 variable.\n    Extending uint256 with DemoLibraries functions\n    so math doesnt cause any buffer overflows\n    */\n    using DemoLibrary for uint256;\n\n    function addTwoValues(uint256 x, uint256 y) public pure returns (uint256 z) {\n        z = x.add(y);\n        return z;\n    }\n}\n\nlibrary DemoLibrary {\n\n    function mul(uint256 a, uint256 b) external pure returns (uint256) {\n        uint256 c = a * b;\n        assert(a == 0 || c / a == b);\n        return c;\n    }\n\n    function div(uint256 a, uint256 b) external pure returns (uint256) {\n        uint256 c = a / b;\n        return c;\n    }\n\n\n    function sub(uint256 a, uint256 b) external pure returns (uint256) {\n        assert(b <= a);\n        return a - b;\n    }\n\n\n    function add(uint256 a, uint256 b) external pure returns (uint256) {\n        uint256 c = a + b;\n        assert(c >= a);\n        return c;\n    }\n}",
  "sourcePath": "/home/moriarty/WebstormProjects/final/contracts/LibraryDemo.sol",
  "compiler": {
    "name": "solc",
    "version": "0.5.0+commit.1d4f565a.Emscripten.clang"
  },
  "schemaVersion": "3.0.0",
  "updatedAt": "2019-01-25T11:16:36.885Z",
  "devdoc": {
    "methods": {}
  },
  "userdoc": {
    "methods": {}
  }
}