{
  "contractName": "Upload",
  "abi": [
    {
      "constant": true,
      "inputs": [],
      "name": "getDocumentType",
      "outputs": [
        {
          "name": "",
          "type": "uint8"
        }
      ],
      "payable": false,
      "stateMutability": "view",
      "type": "function",
      "signature": "0x13368fd9"
    },
    {
      "constant": false,
      "inputs": [
        {
          "name": "x",
          "type": "uint8"
        }
      ],
      "name": "setLevelOfEducation",
      "outputs": [],
      "payable": false,
      "stateMutability": "nonpayable",
      "type": "function",
      "signature": "0x16b073d6"
    },
    {
      "constant": true,
      "inputs": [],
      "name": "getName",
      "outputs": [
        {
          "name": "y",
          "type": "string"
        }
      ],
      "payable": false,
      "stateMutability": "view",
      "type": "function",
      "signature": "0x17d7de7c"
    },
    {
      "constant": true,
      "inputs": [],
      "name": "getLevelOfEducation",
      "outputs": [
        {
          "name": "",
          "type": "uint8"
        }
      ],
      "payable": false,
      "stateMutability": "view",
      "type": "function",
      "signature": "0x20b1260b"
    },
    {
      "constant": false,
      "inputs": [
        {
          "name": "x",
          "type": "string"
        }
      ],
      "name": "setEmail",
      "outputs": [],
      "payable": false,
      "stateMutability": "nonpayable",
      "type": "function",
      "signature": "0x282b065a"
    },
    {
      "constant": false,
      "inputs": [
        {
          "name": "x",
          "type": "uint32"
        }
      ],
      "name": "setStudentID",
      "outputs": [],
      "payable": false,
      "stateMutability": "nonpayable",
      "type": "function",
      "signature": "0x3da8b0fb"
    },
    {
      "constant": true,
      "inputs": [],
      "name": "getEmail",
      "outputs": [
        {
          "name": "y",
          "type": "string"
        }
      ],
      "payable": false,
      "stateMutability": "view",
      "type": "function",
      "signature": "0x7e79e8ba"
    },
    {
      "constant": false,
      "inputs": [
        {
          "name": "_name",
          "type": "string"
        },
        {
          "name": "_surname",
          "type": "string"
        },
        {
          "name": "_email",
          "type": "string"
        },
        {
          "name": "_studentID",
          "type": "uint32"
        },
        {
          "name": "dtc",
          "type": "uint8"
        },
        {
          "name": "loec",
          "type": "uint8"
        }
      ],
      "name": "uploadEP",
      "outputs": [],
      "payable": false,
      "stateMutability": "nonpayable",
      "type": "function",
      "signature": "0x86a89994"
    },
    {
      "constant": true,
      "inputs": [],
      "name": "getSurname",
      "outputs": [
        {
          "name": "y",
          "type": "string"
        }
      ],
      "payable": false,
      "stateMutability": "view",
      "type": "function",
      "signature": "0xacc823f8"
    },
    {
      "constant": false,
      "inputs": [
        {
          "name": "x",
          "type": "uint8"
        }
      ],
      "name": "setDocumentType",
      "outputs": [],
      "payable": false,
      "stateMutability": "nonpayable",
      "type": "function",
      "signature": "0xb92cc181"
    },
    {
      "constant": false,
      "inputs": [
        {
          "name": "x",
          "type": "string"
        }
      ],
      "name": "setName",
      "outputs": [],
      "payable": false,
      "stateMutability": "nonpayable",
      "type": "function",
      "signature": "0xc47f0027"
    },
    {
      "constant": true,
      "inputs": [],
      "name": "getHash",
      "outputs": [
        {
          "name": "x",
          "type": "string"
        }
      ],
      "payable": false,
      "stateMutability": "view",
      "type": "function",
      "signature": "0xd13319c4"
    },
    {
      "constant": false,
      "inputs": [
        {
          "name": "x",
          "type": "string"
        }
      ],
      "name": "sendHash",
      "outputs": [],
      "payable": false,
      "stateMutability": "nonpayable",
      "type": "function",
      "signature": "0xdfb29935"
    },
    {
      "constant": true,
      "inputs": [],
      "name": "getStudentID",
      "outputs": [
        {
          "name": "y",
          "type": "uint32"
        }
      ],
      "payable": false,
      "stateMutability": "view",
      "type": "function",
      "signature": "0xeecd3df4"
    },
    {
      "constant": false,
      "inputs": [
        {
          "name": "x",
          "type": "string"
        }
      ],
      "name": "setSurName",
      "outputs": [],
      "payable": false,
      "stateMutability": "nonpayable",
      "type": "function",
      "signature": "0xf99181b1"
    },
    {
      "constant": false,
      "inputs": [
        {
          "name": "_name",
          "type": "string"
        },
        {
          "name": "_surname",
          "type": "string"
        },
        {
          "name": "_email",
          "type": "string"
        },
        {
          "name": "_studentID",
          "type": "uint32"
        },
        {
          "name": "dtc",
          "type": "uint8"
        },
        {
          "name": "loec",
          "type": "uint8"
        },
        {
          "name": "fileHash",
          "type": "string"
        }
      ],
      "name": "uploadEducationPasaport",
      "outputs": [],
      "payable": false,
      "stateMutability": "nonpayable",
      "type": "function",
      "signature": "0x2e6c735c"
    },
    {
      "constant": false,
      "inputs": [
        {
          "name": "x",
          "type": "string"
        }
      ],
      "name": "test",
      "outputs": [],
      "payable": false,
      "stateMutability": "nonpayable",
      "type": "function",
      "signature": "0xf9fbd554"
    },
    {
      "constant": false,
      "inputs": [],
      "name": "getTest",
      "outputs": [
        {
          "name": "x",
          "type": "string"
        }
      ],
      "payable": false,
      "stateMutability": "nonpayable",
      "type": "function",
      "signature": "0xa8cd0a80"
    }
  ],
  "bytecode": "0x608060405234801561001057600080fd5b50611387806100206000396000f3fe6080604052600436106100fc576000357c0100000000000000000000000000000000000000000000000000000000900463ffffffff16806313368fd91461010157806316b073d61461013a57806317d7de7c1461017857806320b1260b14610208578063282b065a146102415780632e6c735c146103095780633da8b0fb146105c05780637e79e8ba1461060157806386a8999414610691578063a8cd0a80146108b1578063acc823f814610941578063b92cc181146109d1578063c47f002714610a0f578063d13319c414610ad7578063dfb2993514610b67578063eecd3df414610c2f578063f99181b114610c66578063f9fbd55414610d2e575b600080fd5b34801561010d57600080fd5b50610116610df6565b6040518082600381111561012657fe5b60ff16815260200191505060405180910390f35b34801561014657600080fd5b506101766004803603602081101561015d57600080fd5b81019080803560ff169060200190929190505050610e0d565b005b34801561018457600080fd5b5061018d610e32565b6040518080602001828103825283818151815260200191508051906020019080838360005b838110156101cd5780820151818401526020810190506101b2565b50505050905090810190601f1680156101fa5780820380516001836020036101000a031916815260200191505b509250505060405180910390f35b34801561021457600080fd5b5061021d610ed4565b6040518082600581111561022d57fe5b60ff16815260200191505060405180910390f35b34801561024d57600080fd5b506103076004803603602081101561026457600080fd5b810190808035906020019064010000000081111561028157600080fd5b82018360208201111561029357600080fd5b803590602001918460018302840111640100000000831117156102b557600080fd5b91908080601f016020809104026020016040519081016040528093929190818152602001838380828437600081840152601f19601f820116905080830192505050505050509192919290505050610eea565b005b34801561031557600080fd5b506105be600480360360e081101561032c57600080fd5b810190808035906020019064010000000081111561034957600080fd5b82018360208201111561035b57600080fd5b8035906020019184600183028401116401000000008311171561037d57600080fd5b91908080601f016020809104026020016040519081016040528093929190818152602001838380828437600081840152601f19601f820116905080830192505050505050509192919290803590602001906401000000008111156103e057600080fd5b8201836020820111156103f257600080fd5b8035906020019184600183028401116401000000008311171561041457600080fd5b91908080601f016020809104026020016040519081016040528093929190818152602001838380828437600081840152601f19601f8201169050808301925050505050505091929192908035906020019064010000000081111561047757600080fd5b82018360208201111561048957600080fd5b803590602001918460018302840111640100000000831117156104ab57600080fd5b91908080601f016020809104026020016040519081016040528093929190818152602001838380828437600081840152601f19601f820116905080830192505050505050509192919290803563ffffffff169060200190929190803560ff169060200190929190803560ff1690602001909291908035906020019064010000000081111561053857600080fd5b82018360208201111561054a57600080fd5b8035906020019184600183028401116401000000008311171561056c57600080fd5b91908080601f016020809104026020016040519081016040528093929190818152602001838380828437600081840152601f19601f820116905080830192505050505050509192919290505050610f04565b005b3480156105cc57600080fd5b506105ff600480360360208110156105e357600080fd5b81019080803563ffffffff169060200190929190505050610f24565b005b34801561060d57600080fd5b50610616610f48565b6040518080602001828103825283818151815260200191508051906020019080838360005b8381101561065657808201518184015260208101905061063b565b50505050905090810190601f1680156106835780820380516001836020036101000a031916815260200191505b509250505060405180910390f35b34801561069d57600080fd5b506108af600480360360c08110156106b457600080fd5b81019080803590602001906401000000008111156106d157600080fd5b8201836020820111156106e357600080fd5b8035906020019184600183028401116401000000008311171561070557600080fd5b91908080601f016020809104026020016040519081016040528093929190818152602001838380828437600081840152601f19601f8201169050808301925050505050505091929192908035906020019064010000000081111561076857600080fd5b82018360208201111561077a57600080fd5b8035906020019184600183028401116401000000008311171561079c57600080fd5b91908080601f016020809104026020016040519081016040528093929190818152602001838380828437600081840152601f19601f820116905080830192505050505050509192919290803590602001906401000000008111156107ff57600080fd5b82018360208201111561081157600080fd5b8035906020019184600183028401116401000000008311171561083357600080fd5b91908080601f016020809104026020016040519081016040528093929190818152602001838380828437600081840152601f19601f820116905080830192505050505050509192919290803563ffffffff169060200190929190803560ff169060200190929190803560ff169060200190929190505050610fea565b005b3480156108bd57600080fd5b506108c6611028565b6040518080602001828103825283818151815260200191508051906020019080838360005b838110156109065780820151818401526020810190506108eb565b50505050905090810190601f1680156109335780820380516001836020036101000a031916815260200191505b509250505060405180910390f35b34801561094d57600080fd5b506109566110ca565b6040518080602001828103825283818151815260200191508051906020019080838360005b8381101561099657808201518184015260208101905061097b565b50505050905090810190601f1680156109c35780820380516001836020036101000a031916815260200191505b509250505060405180910390f35b3480156109dd57600080fd5b50610a0d600480360360208110156109f457600080fd5b81019080803560ff16906020019092919050505061116c565b005b348015610a1b57600080fd5b50610ad560048036036020811015610a3257600080fd5b8101908080359060200190640100000000811115610a4f57600080fd5b820183602082011115610a6157600080fd5b80359060200191846001830284011164010000000083111715610a8357600080fd5b91908080601f016020809104026020016040519081016040528093929190818152602001838380828437600081840152601f19601f820116905080830192505050505050509192919290505050611192565b005b348015610ae357600080fd5b50610aec6111ac565b6040518080602001828103825283818151815260200191508051906020019080838360005b83811015610b2c578082015181840152602081019050610b11565b50505050905090810190601f168015610b595780820380516001836020036101000a031916815260200191505b509250505060405180910390f35b348015610b7357600080fd5b50610c2d60048036036020811015610b8a57600080fd5b8101908080359060200190640100000000811115610ba757600080fd5b820183602082011115610bb957600080fd5b80359060200191846001830284011164010000000083111715610bdb57600080fd5b91908080601f016020809104026020016040519081016040528093929190818152602001838380828437600081840152601f19601f82011690508083019250505050505050919291929050505061124e565b005b348015610c3b57600080fd5b50610c44611268565b604051808263ffffffff1663ffffffff16815260200191505060405180910390f35b348015610c7257600080fd5b50610d2c60048036036020811015610c8957600080fd5b8101908080359060200190640100000000811115610ca657600080fd5b820183602082011115610cb857600080fd5b80359060200191846001830284011164010000000083111715610cda57600080fd5b91908080601f016020809104026020016040519081016040528093929190818152602001838380828437600081840152601f19601f820116905080830192505050505050509192919290505050611282565b005b348015610d3a57600080fd5b50610df460048036036020811015610d5157600080fd5b8101908080359060200190640100000000811115610d6e57600080fd5b820183602082011115610d8057600080fd5b80359060200191846001830284011164010000000083111715610da257600080fd5b91908080601f016020809104026020016040519081016040528093929190818152602001838380828437600081840152601f19601f82011690508083019250505050505050919291929050505061129c565b005b6000600160009054906101000a900460ff16905090565b806001806101000a81548160ff02191690836005811115610e2a57fe5b021790555050565b606060028054600181600116156101000203166002900480601f016020809104026020016040519081016040528092919081815260200182805460018160011615610100020316600290048015610eca5780601f10610e9f57610100808354040283529160200191610eca565b820191906000526020600020905b815481529060010190602001808311610ead57829003601f168201915b5050505050905090565b60006001809054906101000a900460ff16905090565b8060049080519060200190610f009291906112b6565b5050565b610f12878787878787610fea565b610f1b8161124e565b50505050505050565b80600560006101000a81548163ffffffff021916908363ffffffff16021790555050565b606060048054600181600116156101000203166002900480601f016020809104026020016040519081016040528092919081815260200182805460018160011615610100020316600290048015610fe05780601f10610fb557610100808354040283529160200191610fe0565b820191906000526020600020905b815481529060010190602001808311610fc357829003601f168201915b5050505050905090565b610ff386611192565b610ffc85611282565b61100584610eea565b61100e83610f24565b6110178261116c565b61102081610e0d565b505050505050565b606060068054600181600116156101000203166002900480601f0160208091040260200160405190810160405280929190818152602001828054600181600116156101000203166002900480156110c05780601f10611095576101008083540402835291602001916110c0565b820191906000526020600020905b8154815290600101906020018083116110a357829003601f168201915b5050505050905090565b606060038054600181600116156101000203166002900480601f0160208091040260200160405190810160405280929190818152602001828054600181600116156101000203166002900480156111625780601f1061113757610100808354040283529160200191611162565b820191906000526020600020905b81548152906001019060200180831161114557829003601f168201915b5050505050905090565b80600160006101000a81548160ff0219169083600381111561118a57fe5b021790555050565b80600290805190602001906111a89291906112b6565b5050565b606060008054600181600116156101000203166002900480601f0160208091040260200160405190810160405280929190818152602001828054600181600116156101000203166002900480156112445780601f1061121957610100808354040283529160200191611244565b820191906000526020600020905b81548152906001019060200180831161122757829003601f168201915b5050505050905090565b80600090805190602001906112649291906112b6565b5050565b6000600560009054906101000a900463ffffffff16905090565b80600390805190602001906112989291906112b6565b5050565b80600690805190602001906112b29291906112b6565b5050565b828054600181600116156101000203166002900490600052602060002090601f016020900481019282601f106112f757805160ff1916838001178555611325565b82800160010185558215611325579182015b82811115611324578251825591602001919060010190611309565b5b5090506113329190611336565b5090565b61135891905b8082111561135457600081600090555060010161133c565b5090565b9056fea165627a7a72305820475abb5690b946acf45b9309d15aaf3f2a89811fcc995dcb9403fde3a311ed3c0029",
  "source": "pragma solidity ^0.5.0;\n\nimport \"./IPFSHashStore.sol\";\nimport \"./EducationPasaport.sol\";\n\ncontract Upload is IPFSHashStore, EducationPasaport {\n    string teststr;\n    function uploadEducationPasaport(string memory _name,string memory _surname,string memory _email,uint32  _studentID,documentType  dtc,levelOfEducation  loec,string memory fileHash) public {\n        uploadEP(_name,_surname,_email,_studentID,dtc,loec);\n        sendHash(fileHash);\n    }\n\n    function test(string memory x) public {\n        teststr = x;\n    }\n\n    function getTest() public returns(string memory x){\n        return teststr;\n    }\n}\n",
  "sourcePath": "/home/moriarty/WebstormProjects/final/contracts/Upload.sol",
  "compiler": {
    "name": "solc",
    "version": "0.5.0+commit.1d4f565a.Emscripten.clang"
  },
  "schemaVersion": "3.0.0",
  "updatedAt": "2019-01-24T16:54:07.176Z",
  "devdoc": {
    "methods": {}
  },
  "userdoc": {
    "methods": {}
  }
}