{
  "contractName": "Upload",
  "abi": [
    {
      "constant": true,
      "inputs": [],
      "name": "backendContract",
      "outputs": [
        {
          "name": "",
          "type": "address"
        }
      ],
      "payable": false,
      "stateMutability": "view",
      "type": "function",
      "signature": "0x6f752f09"
    },
    {
      "constant": true,
      "inputs": [],
      "name": "owner",
      "outputs": [
        {
          "name": "",
          "type": "address"
        }
      ],
      "payable": false,
      "stateMutability": "view",
      "type": "function",
      "signature": "0x8da5cb5b"
    },
    {
      "constant": true,
      "inputs": [
        {
          "name": "",
          "type": "uint256"
        }
      ],
      "name": "previousBackends",
      "outputs": [
        {
          "name": "",
          "type": "address"
        }
      ],
      "payable": false,
      "stateMutability": "view",
      "type": "function",
      "signature": "0xb117dd17"
    },
    {
      "constant": true,
      "inputs": [],
      "name": "newOwner",
      "outputs": [
        {
          "name": "",
          "type": "address"
        }
      ],
      "payable": false,
      "stateMutability": "view",
      "type": "function",
      "signature": "0xd4ee1d90"
    },
    {
      "inputs": [],
      "payable": false,
      "stateMutability": "nonpayable",
      "type": "constructor",
      "signature": "constructor"
    },
    {
      "payable": false,
      "stateMutability": "nonpayable",
      "type": "fallback"
    },
    {
      "anonymous": false,
      "inputs": [
        {
          "indexed": true,
          "name": "_from",
          "type": "address"
        },
        {
          "indexed": true,
          "name": "_to",
          "type": "address"
        }
      ],
      "name": "OwnershipTransferred",
      "type": "event",
      "signature": "0x8be0079c531659141344cd1fd0a4f28419497f9722a3daafe3b4186f6b6457e0"
    },
    {
      "constant": false,
      "inputs": [
        {
          "name": "_newOwner",
          "type": "address"
        }
      ],
      "name": "transferOwnership",
      "outputs": [],
      "payable": false,
      "stateMutability": "nonpayable",
      "type": "function",
      "signature": "0xf2fde38b"
    },
    {
      "constant": false,
      "inputs": [],
      "name": "acceptOwnership",
      "outputs": [],
      "payable": false,
      "stateMutability": "nonpayable",
      "type": "function",
      "signature": "0x79ba5097"
    },
    {
      "constant": false,
      "inputs": [
        {
          "name": "_name",
          "type": "string"
        },
        {
          "name": "_surname",
          "type": "string"
        },
        {
          "name": "_email",
          "type": "string"
        },
        {
          "name": "_studentID",
          "type": "uint32"
        },
        {
          "name": "dtc",
          "type": "uint8"
        },
        {
          "name": "loec",
          "type": "uint8"
        },
        {
          "name": "fileHash",
          "type": "string"
        }
      ],
      "name": "uploadEducationPasaport",
      "outputs": [],
      "payable": false,
      "stateMutability": "nonpayable",
      "type": "function",
      "signature": "0x2e6c735c"
    },
    {
      "constant": false,
      "inputs": [],
      "name": "toggle_active",
      "outputs": [],
      "payable": false,
      "stateMutability": "nonpayable",
      "type": "function",
      "signature": "0x3afd1b67"
    },
    {
      "constant": false,
      "inputs": [
        {
          "name": "newBackend",
          "type": "address"
        }
      ],
      "name": "changeBackend",
      "outputs": [
        {
          "name": "",
          "type": "bool"
        }
      ],
      "payable": false,
      "stateMutability": "nonpayable",
      "type": "function",
      "signature": "0xeaecfca7"
    },
    {
      "constant": false,
      "inputs": [
        {
          "name": "x",
          "type": "string"
        }
      ],
      "name": "sendHash",
      "outputs": [],
      "payable": false,
      "stateMutability": "nonpayable",
      "type": "function",
      "signature": "0xdfb29935"
    },
    {
      "constant": true,
      "inputs": [],
      "name": "getHash",
      "outputs": [
        {
          "name": "x",
          "type": "string"
        }
      ],
      "payable": false,
      "stateMutability": "view",
      "type": "function",
      "signature": "0xd13319c4"
    },
    {
      "constant": false,
      "inputs": [
        {
          "name": "x",
          "type": "uint8"
        }
      ],
      "name": "setDocumentType",
      "outputs": [],
      "payable": false,
      "stateMutability": "nonpayable",
      "type": "function",
      "signature": "0xb92cc181"
    },
    {
      "constant": true,
      "inputs": [],
      "name": "getDocumentType",
      "outputs": [
        {
          "name": "",
          "type": "uint8"
        }
      ],
      "payable": false,
      "stateMutability": "view",
      "type": "function",
      "signature": "0x13368fd9"
    },
    {
      "constant": false,
      "inputs": [
        {
          "name": "x",
          "type": "uint8"
        }
      ],
      "name": "setLevelOfEducation",
      "outputs": [],
      "payable": false,
      "stateMutability": "nonpayable",
      "type": "function",
      "signature": "0x16b073d6"
    },
    {
      "constant": true,
      "inputs": [],
      "name": "getLevelOfEducation",
      "outputs": [
        {
          "name": "",
          "type": "uint8"
        }
      ],
      "payable": false,
      "stateMutability": "view",
      "type": "function",
      "signature": "0x20b1260b"
    },
    {
      "constant": true,
      "inputs": [],
      "name": "getName",
      "outputs": [
        {
          "name": "y",
          "type": "string"
        }
      ],
      "payable": false,
      "stateMutability": "view",
      "type": "function",
      "signature": "0x17d7de7c"
    },
    {
      "constant": false,
      "inputs": [
        {
          "name": "x",
          "type": "string"
        }
      ],
      "name": "setName",
      "outputs": [],
      "payable": false,
      "stateMutability": "nonpayable",
      "type": "function",
      "signature": "0xc47f0027"
    },
    {
      "constant": true,
      "inputs": [],
      "name": "getSurname",
      "outputs": [
        {
          "name": "y",
          "type": "string"
        }
      ],
      "payable": false,
      "stateMutability": "view",
      "type": "function",
      "signature": "0xacc823f8"
    },
    {
      "constant": false,
      "inputs": [
        {
          "name": "x",
          "type": "string"
        }
      ],
      "name": "setSurName",
      "outputs": [],
      "payable": false,
      "stateMutability": "nonpayable",
      "type": "function",
      "signature": "0xf99181b1"
    },
    {
      "constant": true,
      "inputs": [],
      "name": "getEmail",
      "outputs": [
        {
          "name": "y",
          "type": "string"
        }
      ],
      "payable": false,
      "stateMutability": "view",
      "type": "function",
      "signature": "0x7e79e8ba"
    },
    {
      "constant": false,
      "inputs": [
        {
          "name": "x",
          "type": "string"
        }
      ],
      "name": "setEmail",
      "outputs": [],
      "payable": false,
      "stateMutability": "nonpayable",
      "type": "function",
      "signature": "0x282b065a"
    },
    {
      "constant": true,
      "inputs": [],
      "name": "getStudentID",
      "outputs": [
        {
          "name": "y",
          "type": "uint32"
        }
      ],
      "payable": false,
      "stateMutability": "view",
      "type": "function",
      "signature": "0xeecd3df4"
    },
    {
      "constant": false,
      "inputs": [
        {
          "name": "x",
          "type": "uint32"
        }
      ],
      "name": "setStudentID",
      "outputs": [],
      "payable": false,
      "stateMutability": "nonpayable",
      "type": "function",
      "signature": "0x3da8b0fb"
    },
    {
      "constant": false,
      "inputs": [
        {
          "name": "_name",
          "type": "string"
        },
        {
          "name": "_surname",
          "type": "string"
        },
        {
          "name": "_email",
          "type": "string"
        },
        {
          "name": "_studentID",
          "type": "uint32"
        },
        {
          "name": "dtc",
          "type": "uint8"
        },
        {
          "name": "loec",
          "type": "uint8"
        }
      ],
      "name": "uploadEP",
      "outputs": [],
      "payable": false,
      "stateMutability": "nonpayable",
      "type": "function",
      "signature": "0x86a89994"
    }
  ],
  "bytecode": "0x60806040524260025534801561001457600080fd5b50336000806101000a81548173ffffffffffffffffffffffffffffffffffffffff021916908373ffffffffffffffffffffffffffffffffffffffff1602179055506000600160146101000a81548160ff021916908315150217905550611a218061007f6000396000f3fe60806040526004361061013e576000357c0100000000000000000000000000000000000000000000000000000000900463ffffffff16806313368fd91461015057806316b073d61461018957806317d7de7c146101c757806320b1260b14610257578063282b065a146102905780632e6c735c146103585780633afd1b671461060f5780633da8b0fb146106265780636f752f091461066757806379ba5097146106be5780637e79e8ba146106d557806386a89994146107655780638da5cb5b14610985578063acc823f8146109dc578063b117dd1714610a6c578063b92cc18114610ae7578063c47f002714610b25578063d13319c414610bed578063d4ee1d9014610c7d578063dfb2993514610cd4578063eaecfca714610d9c578063eecd3df414610e05578063f2fde38b14610e3c578063f99181b114610e8d575b34801561014a57600080fd5b50600080fd5b34801561015c57600080fd5b50610165610f55565b6040518082600381111561017557fe5b60ff16815260200191505060405180910390f35b34801561019557600080fd5b506101c5600480360360208110156101ac57600080fd5b81019080803560ff169060200190929190505050610f6c565b005b3480156101d357600080fd5b506101dc610f92565b6040518080602001828103825283818151815260200191508051906020019080838360005b8381101561021c578082015181840152602081019050610201565b50505050905090810190601f1680156102495780820380516001836020036101000a031916815260200191505b509250505060405180910390f35b34801561026357600080fd5b5061026c611034565b6040518082600581111561027c57fe5b60ff16815260200191505060405180910390f35b34801561029c57600080fd5b50610356600480360360208110156102b357600080fd5b81019080803590602001906401000000008111156102d057600080fd5b8201836020820111156102e257600080fd5b8035906020019184600183028401116401000000008311171561030457600080fd5b91908080601f016020809104026020016040519081016040528093929190818152602001838380828437600081840152601f19601f82011690508083019250505050505050919291929050505061104b565b005b34801561036457600080fd5b5061060d600480360360e081101561037b57600080fd5b810190808035906020019064010000000081111561039857600080fd5b8201836020820111156103aa57600080fd5b803590602001918460018302840111640100000000831117156103cc57600080fd5b91908080601f016020809104026020016040519081016040528093929190818152602001838380828437600081840152601f19601f8201169050808301925050505050505091929192908035906020019064010000000081111561042f57600080fd5b82018360208201111561044157600080fd5b8035906020019184600183028401116401000000008311171561046357600080fd5b91908080601f016020809104026020016040519081016040528093929190818152602001838380828437600081840152601f19601f820116905080830192505050505050509192919290803590602001906401000000008111156104c657600080fd5b8201836020820111156104d857600080fd5b803590602001918460018302840111640100000000831117156104fa57600080fd5b91908080601f016020809104026020016040519081016040528093929190818152602001838380828437600081840152601f19601f820116905080830192505050505050509192919290803563ffffffff169060200190929190803560ff169060200190929190803560ff1690602001909291908035906020019064010000000081111561058757600080fd5b82018360208201111561059957600080fd5b803590602001918460018302840111640100000000831117156105bb57600080fd5b91908080601f016020809104026020016040519081016040528093929190818152602001838380828437600081840152601f19601f820116905080830192505050505050509192919290505050611065565b005b34801561061b57600080fd5b50610624611148565b005b34801561063257600080fd5b506106656004803603602081101561064957600080fd5b81019080803563ffffffff1690602001909291905050506111cf565b005b34801561067357600080fd5b5061067c6111f3565b604051808273ffffffffffffffffffffffffffffffffffffffff1673ffffffffffffffffffffffffffffffffffffffff16815260200191505060405180910390f35b3480156106ca57600080fd5b506106d3611219565b005b3480156106e157600080fd5b506106ea6113b8565b6040518080602001828103825283818151815260200191508051906020019080838360005b8381101561072a57808201518184015260208101905061070f565b50505050905090810190601f1680156107575780820380516001836020036101000a031916815260200191505b509250505060405180910390f35b34801561077157600080fd5b50610983600480360360c081101561078857600080fd5b81019080803590602001906401000000008111156107a557600080fd5b8201836020820111156107b757600080fd5b803590602001918460018302840111640100000000831117156107d957600080fd5b91908080601f016020809104026020016040519081016040528093929190818152602001838380828437600081840152601f19601f8201169050808301925050505050505091929192908035906020019064010000000081111561083c57600080fd5b82018360208201111561084e57600080fd5b8035906020019184600183028401116401000000008311171561087057600080fd5b91908080601f016020809104026020016040519081016040528093929190818152602001838380828437600081840152601f19601f820116905080830192505050505050509192919290803590602001906401000000008111156108d357600080fd5b8201836020820111156108e557600080fd5b8035906020019184600183028401116401000000008311171561090757600080fd5b91908080601f016020809104026020016040519081016040528093929190818152602001838380828437600081840152601f19601f820116905080830192505050505050509192919290803563ffffffff169060200190929190803560ff169060200190929190803560ff16906020019092919050505061145a565b005b34801561099157600080fd5b5061099a611498565b604051808273ffffffffffffffffffffffffffffffffffffffff1673ffffffffffffffffffffffffffffffffffffffff16815260200191505060405180910390f35b3480156109e857600080fd5b506109f16114bd565b6040518080602001828103825283818151815260200191508051906020019080838360005b83811015610a31578082015181840152602081019050610a16565b50505050905090810190601f168015610a5e5780820380516001836020036101000a031916815260200191505b509250505060405180910390f35b348015610a7857600080fd5b50610aa560048036036020811015610a8f57600080fd5b810190808035906020019092919050505061155f565b604051808273ffffffffffffffffffffffffffffffffffffffff1673ffffffffffffffffffffffffffffffffffffffff16815260200191505060405180910390f35b348015610af357600080fd5b50610b2360048036036020811015610b0a57600080fd5b81019080803560ff16906020019092919050505061159d565b005b348015610b3157600080fd5b50610beb60048036036020811015610b4857600080fd5b8101908080359060200190640100000000811115610b6557600080fd5b820183602082011115610b7757600080fd5b80359060200191846001830284011164010000000083111715610b9957600080fd5b91908080601f016020809104026020016040519081016040528093929190818152602001838380828437600081840152601f19601f8201169050808301925050505050505091929192905050506115c3565b005b348015610bf957600080fd5b50610c026115dd565b6040518080602001828103825283818151815260200191508051906020019080838360005b83811015610c42578082015181840152602081019050610c27565b50505050905090810190601f168015610c6f5780820380516001836020036101000a031916815260200191505b509250505060405180910390f35b348015610c8957600080fd5b50610c9261167f565b604051808273ffffffffffffffffffffffffffffffffffffffff1673ffffffffffffffffffffffffffffffffffffffff16815260200191505060405180910390f35b348015610ce057600080fd5b50610d9a60048036036020811015610cf757600080fd5b8101908080359060200190640100000000811115610d1457600080fd5b820183602082011115610d2657600080fd5b80359060200191846001830284011164010000000083111715610d4857600080fd5b91908080601f016020809104026020016040519081016040528093929190818152602001838380828437600081840152601f19601f8201169050808301925050505050505091929192905050506116a5565b005b348015610da857600080fd5b50610deb60048036036020811015610dbf57600080fd5b81019080803573ffffffffffffffffffffffffffffffffffffffff1690602001909291905050506116bf565b604051808215151515815260200191505060405180910390f35b348015610e1157600080fd5b50610e1a611866565b604051808263ffffffff1663ffffffff16815260200191505060405180910390f35b348015610e4857600080fd5b50610e8b60048036036020811015610e5f57600080fd5b81019080803573ffffffffffffffffffffffffffffffffffffffff169060200190929190505050611880565b005b348015610e9957600080fd5b50610f5360048036036020811015610eb057600080fd5b8101908080359060200190640100000000811115610ecd57600080fd5b820183602082011115610edf57600080fd5b80359060200191846001830284011164010000000083111715610f0157600080fd5b91908080601f016020809104026020016040519081016040528093929190818152602001838380828437600081840152601f19601f820116905080830192505050505050509192919290505050611936565b005b6000600660009054906101000a900460ff16905090565b80600660016101000a81548160ff02191690836005811115610f8a57fe5b021790555050565b606060078054600181600116156101000203166002900480601f01602080910402602001604051908101604052809291908181526020018280546001816001161561010002031660029004801561102a5780601f10610fff5761010080835404028352916020019161102a565b820191906000526020600020905b81548152906001019060200180831161100d57829003601f168201915b5050505050905090565b6000600660019054906101000a900460ff16905090565b8060099080519060200190611061929190611950565b5050565b600160149054906101000a900460ff16151561113f576003600254421015151561111d576040517f08c379a00000000000000000000000000000000000000000000000000000000081526004018080602001828103825260268152602001807f4163636573732069732064656e6965642e2052617465206c696d69742065786381526020017f65656465642e000000000000000000000000000000000000000000000000000081525060400191505060405180910390fd5b80420160028190555061113488888888888861145a565b61113d826116a5565b505b50505050505050565b6000809054906101000a900473ffffffffffffffffffffffffffffffffffffffff1673ffffffffffffffffffffffffffffffffffffffff163373ffffffffffffffffffffffffffffffffffffffff161415156111a357600080fd5b600160149054906101000a900460ff1615600160146101000a81548160ff021916908315150217905550565b80600a60006101000a81548163ffffffff021916908363ffffffff16021790555050565b600360009054906101000a900473ffffffffffffffffffffffffffffffffffffffff1681565b600160009054906101000a900473ffffffffffffffffffffffffffffffffffffffff1673ffffffffffffffffffffffffffffffffffffffff163373ffffffffffffffffffffffffffffffffffffffff1614151561127557600080fd5b600160009054906101000a900473ffffffffffffffffffffffffffffffffffffffff1673ffffffffffffffffffffffffffffffffffffffff166000809054906101000a900473ffffffffffffffffffffffffffffffffffffffff1673ffffffffffffffffffffffffffffffffffffffff167f8be0079c531659141344cd1fd0a4f28419497f9722a3daafe3b4186f6b6457e060405160405180910390a3600160009054906101000a900473ffffffffffffffffffffffffffffffffffffffff166000806101000a81548173ffffffffffffffffffffffffffffffffffffffff021916908373ffffffffffffffffffffffffffffffffffffffff1602179055506000600160006101000a81548173ffffffffffffffffffffffffffffffffffffffff021916908373ffffffffffffffffffffffffffffffffffffffff160217905550565b606060098054600181600116156101000203166002900480601f0160208091040260200160405190810160405280929190818152602001828054600181600116156101000203166002900480156114505780601f1061142557610100808354040283529160200191611450565b820191906000526020600020905b81548152906001019060200180831161143357829003601f168201915b5050505050905090565b611463866115c3565b61146c85611936565b6114758461104b565b61147e836111cf565b6114878261159d565b61149081610f6c565b505050505050565b6000809054906101000a900473ffffffffffffffffffffffffffffffffffffffff1681565b606060088054600181600116156101000203166002900480601f0160208091040260200160405190810160405280929190818152602001828054600181600116156101000203166002900480156115555780601f1061152a57610100808354040283529160200191611555565b820191906000526020600020905b81548152906001019060200180831161153857829003601f168201915b5050505050905090565b60048181548110151561156e57fe5b906000526020600020016000915054906101000a900473ffffffffffffffffffffffffffffffffffffffff1681565b80600660006101000a81548160ff021916908360038111156115bb57fe5b021790555050565b80600790805190602001906115d9929190611950565b5050565b606060058054600181600116156101000203166002900480601f0160208091040260200160405190810160405280929190818152602001828054600181600116156101000203166002900480156116755780601f1061164a57610100808354040283529160200191611675565b820191906000526020600020905b81548152906001019060200180831161165857829003601f168201915b5050505050905090565b600160009054906101000a900473ffffffffffffffffffffffffffffffffffffffff1681565b80600590805190602001906116bb929190611950565b5050565b60008060009054906101000a900473ffffffffffffffffffffffffffffffffffffffff1673ffffffffffffffffffffffffffffffffffffffff163373ffffffffffffffffffffffffffffffffffffffff1614151561171c57600080fd5b600160149054906101000a900460ff16151561186157600360009054906101000a900473ffffffffffffffffffffffffffffffffffffffff1673ffffffffffffffffffffffffffffffffffffffff168273ffffffffffffffffffffffffffffffffffffffff1614151561185b576004600360009054906101000a900473ffffffffffffffffffffffffffffffffffffffff1690806001815401808255809150509060018203906000526020600020016000909192909190916101000a81548173ffffffffffffffffffffffffffffffffffffffff021916908373ffffffffffffffffffffffffffffffffffffffff1602179055505081600360006101000a81548173ffffffffffffffffffffffffffffffffffffffff021916908373ffffffffffffffffffffffffffffffffffffffff16021790555060019050611860565b600090505b5b919050565b6000600a60009054906101000a900463ffffffff16905090565b600160149054906101000a900460ff161515611933576000809054906101000a900473ffffffffffffffffffffffffffffffffffffffff1673ffffffffffffffffffffffffffffffffffffffff163373ffffffffffffffffffffffffffffffffffffffff161415156118f157600080fd5b80600160006101000a81548173ffffffffffffffffffffffffffffffffffffffff021916908373ffffffffffffffffffffffffffffffffffffffff1602179055505b50565b806008908051906020019061194c929190611950565b5050565b828054600181600116156101000203166002900490600052602060002090601f016020900481019282601f1061199157805160ff19168380011785556119bf565b828001600101855582156119bf579182015b828111156119be5782518255916020019190600101906119a3565b5b5090506119cc91906119d0565b5090565b6119f291905b808211156119ee5760008160009055506001016119d6565b5090565b9056fea165627a7a72305820eaa59a03407b1838b18685ef72917ec7d7bd83d673a564b5e76f3d45168dbc440029",
  "source": "pragma solidity ^0.5.0;\n\n/** @title Education Pasaport Upload. */\ncontract Upload {\n\n    constructor() public {\n        owner = msg.sender;\n        //circuit breaker\n        stopped = false;\n    }\n\n    // Ownership start\n    address public owner;\n    address public newOwner;\n\n    event OwnershipTransferred(address indexed _from, address indexed _to);\n\n    /** @dev Modifier function that restricts users from interacting with a certain function.\n      */\n    modifier onlyOwner {\n        require(msg.sender == owner);\n        _;\n    }\n\n    /** @dev Transfers Ownership from old owner to new one.\n      * @param _newOwner Address of the new owner.\n      */\n    function transferOwnership(address _newOwner) public stop_if_emergency onlyOwner {\n        newOwner = _newOwner;\n    }\n\n    /** @dev Accepts ownership and frees new owners address. Triggers event to inform change of ownership.\n      */\n    function acceptOwnership() public {\n        require(msg.sender == newOwner);\n        emit OwnershipTransferred(owner, newOwner);\n        owner = newOwner;\n        newOwner = address(0);\n    }\n    // Ownership end\n\n    /** @dev Uploads education pasaport information and file hash to blockchain network.\n      * @param _name name of the sender.\n      @param _surname surname of the sender.\n      @param _email email of the sender.\n      @param _studentID student id of the sender.\n      @param dtc document type of uploaded file.\n      @param loec level of education of the sender.\n      @param fileHash hash of the sender's file.\n      */\n    function uploadEducationPasaport(string memory _name,\n        string memory _surname,\n        string memory _email,\n        uint32  _studentID,\n        documentType  dtc,\n        levelOfEducation loec,\n        string memory fileHash) stop_if_emergency enabledEvery(3 seconds) public {\n        uploadEP(_name,_surname,_email,_studentID,dtc,loec);\n        sendHash(fileHash);\n    }\n\n    /** @dev Enables and disables circuit breaking, circuit break pattern.\n        */\n    function toggle_active() onlyOwner public {\n        stopped = !stopped;\n    }\n\n    /** @dev Modifier for stopping important functions.\n        */\n    modifier stop_if_emergency() { if (!stopped) _; }\n\n    /** @dev Modifier function for functions that will work only when there is an emergency situation.\n        */\n    modifier emergency_only() { if (stopped) _; }\n\n    // circuit breaker toggle variable\n    bool stopped;\n\n    //Rate limit\n    uint enabledAt = now;\n\n    /** @dev Modifier that defines a rate limit to a certain function.\n    @param t time\n        */\n    modifier enabledEvery(uint t) {\n        require(now >= enabledAt, \"Access is denied. Rate limit exceeded.\");\n        enabledAt = now + t;\n\n        _;\n    }\n\n    // Upgrade Contract\n\n    address public backendContract;\n    address[] public previousBackends;\n\n    /** @dev Changes address of the smart contract for upgradability.\n    @param newBackend address of the new backend smart contract.\n    @return bool returns true if new and old backend are not same contract.\n        */\n    function changeBackend(address newBackend) onlyOwner stop_if_emergency public returns (bool)\n    {\n        if(newBackend != backendContract) {\n            previousBackends.push(backendContract);\n            backendContract = newBackend;\n            return true;\n        }\n\n        return false;\n    }\n\n    // IPFS Hash Storage\n    string ipfsHash;\n\n    /** @dev Stores the file hash.\n    @param x ipfs hash of the file\n        */\n    function sendHash(string memory x) public {\n        ipfsHash = x;\n    }\n\n    /** @dev Gets stored file hash.\n    @return x returns hash of the stored file.\n    */\n    function getHash() public view returns (string memory x) {\n        return ipfsHash;\n    }\n\n    // Education Pasaport\n    enum documentType {Diplomas,Certificates,Transcripts,ReportCards}\n    enum levelOfEducation {PhD,Master,Bachelor,HighSchool,SecondarySchool,PrimarySchool}\n\n    documentType documentTypeChoice;\n    /** @dev Setter for document type\n        @param x type of the document\n       */\n    function setDocumentType(documentType x) public { documentTypeChoice = x; }\n\n    /** @dev Gets document type.\n    @return documentTypeChoice returns selected document type.\n    */\n    function getDocumentType() public view returns(documentType) {return documentTypeChoice; }\n\n    levelOfEducation levelOfEducationChoice;\n    /** @dev Setter for level of education\n        @param x level of education\n       */\n    function setLevelOfEducation(levelOfEducation x) public { levelOfEducationChoice = x; }\n\n    /** @dev Gets Level Of Education.\n    @return levelOfEducationChoice returns selected level of education.\n    */\n    function getLevelOfEducation() public view returns(levelOfEducation) {return levelOfEducationChoice; }\n\n    string name;\n    /** @dev Gets name.\n    @return name returns name.\n    */\n    function getName() public view returns (string memory y) { return name; }\n\n    /** @dev Setter for name\n        @param x name of sender\n       */\n    function setName(string memory x) public { name = x; }\n\n    string surname;\n\n    /** @dev Gets surname.\n    @return name returns surname.\n    */\n    function getSurname() public view returns (string memory y) { return surname; }\n\n\n    /** @dev Setter for surname\n        @param x surname of sender\n       */\n    function setSurName(string memory x) public { surname = x; }\n\n    string email;\n\n    /** @dev Gets Email.\n    @return y returns Email.\n    */\n    function getEmail() public view returns (string memory y) { return email; }\n\n    /** @dev Setter for email\n        @param x email of sender\n       */\n    function setEmail(string memory x) public { email = x; }\n\n    uint32 studentID;\n\n    /** @dev Gets student id.\n        @return y returns student id as uint32.\n   */\n    function getStudentID() public view returns (uint32 y) { return studentID; }\n\n    /** @dev Setter for student id\n        @param x student id of sender\n       */\n    function setStudentID(uint32 x) public { studentID = x; }\n\n\n    /** @dev Uploads education pasaport information without file hash.\n          * @param _name name of the sender.\n          @param _surname surname of the sender.\n          @param _email email of the sender.\n          @param _studentID student id of the sender.\n          @param dtc document type of uploaded file.\n          @param loec level of education of the sender.\n          */\n    function uploadEP(string memory _name,string memory _surname,string memory _email,uint32 _studentID,documentType  dtc,levelOfEducation  loec) public {\n        setName(_name);\n        setSurName(_surname);\n        setEmail(_email);\n        setStudentID(_studentID);\n        setDocumentType(dtc);\n        setLevelOfEducation(loec);\n    }\n\n    // reject all ether\n\n    /** @dev Rejects all ether that has been sent to this contract.\n          */\n    function() external { revert(); }\n}\n",
  "sourcePath": "/home/moriarty/WebstormProjects/final/contracts/Upload.sol",
  "compiler": {
    "name": "solc",
    "version": "0.5.0+commit.1d4f565a.Emscripten.clang"
  },
  "schemaVersion": "3.0.0",
  "updatedAt": "2019-01-25T11:16:37.257Z",
  "devdoc": {
    "methods": {
      "acceptOwnership()": {
        "details": "Accepts ownership and frees new owners address. Triggers event to inform change of ownership."
      },
      "changeBackend(address)": {
        "details": "Changes address of the smart contract for upgradability.",
        "params": {
          "newBackend": "address of the new backend smart contract."
        },
        "return": "bool returns true if new and old backend are not same contract."
      },
      "getDocumentType()": {
        "details": "Gets document type.",
        "return": "documentTypeChoice returns selected document type."
      },
      "getEmail()": {
        "details": "Gets Email.",
        "return": "y returns Email."
      },
      "getHash()": {
        "details": "Gets stored file hash.",
        "return": "x returns hash of the stored file."
      },
      "getLevelOfEducation()": {
        "details": "Gets Level Of Education.",
        "return": "levelOfEducationChoice returns selected level of education."
      },
      "getName()": {
        "details": "Gets name.",
        "return": "name returns name."
      },
      "getStudentID()": {
        "details": "Gets student id.",
        "return": "y returns student id as uint32."
      },
      "getSurname()": {
        "details": "Gets surname.",
        "return": "name returns surname."
      },
      "sendHash(string)": {
        "details": "Stores the file hash.",
        "params": {
          "x": "ipfs hash of the file"
        }
      },
      "setDocumentType(uint8)": {
        "details": "Setter for document type",
        "params": {
          "x": "type of the document"
        }
      },
      "setEmail(string)": {
        "details": "Setter for email",
        "params": {
          "x": "email of sender"
        }
      },
      "setLevelOfEducation(uint8)": {
        "details": "Setter for level of education",
        "params": {
          "x": "level of education"
        }
      },
      "setName(string)": {
        "details": "Setter for name",
        "params": {
          "x": "name of sender"
        }
      },
      "setStudentID(uint32)": {
        "details": "Setter for student id",
        "params": {
          "x": "student id of sender"
        }
      },
      "setSurName(string)": {
        "details": "Setter for surname",
        "params": {
          "x": "surname of sender"
        }
      },
      "toggle_active()": {
        "details": "Enables and disables circuit breaking, circuit break pattern."
      },
      "transferOwnership(address)": {
        "details": "Transfers Ownership from old owner to new one.",
        "params": {
          "_newOwner": "Address of the new owner."
        }
      },
      "uploadEP(string,string,string,uint32,uint8,uint8)": {
        "details": "Uploads education pasaport information without file hash.",
        "params": {
          "_email": "email of the sender.",
          "_name": "name of the sender.",
          "_studentID": "student id of the sender.",
          "_surname": "surname of the sender.",
          "dtc": "document type of uploaded file.",
          "loec": "level of education of the sender."
        }
      },
      "uploadEducationPasaport(string,string,string,uint32,uint8,uint8,string)": {
        "details": "Uploads education pasaport information and file hash to blockchain network.",
        "params": {
          "_email": "email of the sender.",
          "_name": "name of the sender.",
          "_studentID": "student id of the sender.",
          "_surname": "surname of the sender.",
          "dtc": "document type of uploaded file.",
          "fileHash": "hash of the sender's file.",
          "loec": "level of education of the sender."
        }
      }
    },
    "title": "Education Pasaport Upload. "
  },
  "userdoc": {
    "methods": {}
  }
}